{
    "_format": "hh-sol-artifact-1",
    "contractName": "NFT",
    "sourceName": "contracts/NFT.sol",
    "abi": [
        {
            "inputs": [],
            "stateMutability": "nonpayable",
            "type": "constructor"
        },
        {
            "anonymous": false,
            "inputs": [
                {
                    "indexed": true,
                    "internalType": "address",
                    "name": "owner",
                    "type": "address"
                },
                {
                    "indexed": true,
                    "internalType": "address",
                    "name": "approved",
                    "type": "address"
                },
                {
                    "indexed": true,
                    "internalType": "uint256",
                    "name": "tokenId",
                    "type": "uint256"
                }
            ],
            "name": "Approval",
            "type": "event"
        },
        {
            "anonymous": false,
            "inputs": [
                {
                    "indexed": true,
                    "internalType": "address",
                    "name": "owner",
                    "type": "address"
                },
                {
                    "indexed": true,
                    "internalType": "address",
                    "name": "operator",
                    "type": "address"
                },
                {
                    "indexed": false,
                    "internalType": "bool",
                    "name": "approved",
                    "type": "bool"
                }
            ],
            "name": "ApprovalForAll",
            "type": "event"
        },
        {
            "anonymous": false,
            "inputs": [
                {
                    "indexed": true,
                    "internalType": "address",
                    "name": "previousOwner",
                    "type": "address"
                },
                {
                    "indexed": true,
                    "internalType": "address",
                    "name": "newOwner",
                    "type": "address"
                }
            ],
            "name": "OwnershipTransferred",
            "type": "event"
        },
        {
            "anonymous": false,
            "inputs": [
                {
                    "indexed": true,
                    "internalType": "address",
                    "name": "from",
                    "type": "address"
                },
                {
                    "indexed": true,
                    "internalType": "address",
                    "name": "to",
                    "type": "address"
                },
                {
                    "indexed": true,
                    "internalType": "uint256",
                    "name": "tokenId",
                    "type": "uint256"
                }
            ],
            "name": "Transfer",
            "type": "event"
        },
        {
            "inputs": [
                {
                    "internalType": "address",
                    "name": "to",
                    "type": "address"
                },
                {
                    "internalType": "uint256",
                    "name": "tokenId",
                    "type": "uint256"
                }
            ],
            "name": "approve",
            "outputs": [],
            "stateMutability": "nonpayable",
            "type": "function"
        },
        {
            "inputs": [
                {
                    "internalType": "address",
                    "name": "owner",
                    "type": "address"
                }
            ],
            "name": "balanceOf",
            "outputs": [
                {
                    "internalType": "uint256",
                    "name": "",
                    "type": "uint256"
                }
            ],
            "stateMutability": "view",
            "type": "function"
        },
        {
            "inputs": [],
            "name": "baseExtension",
            "outputs": [
                {
                    "internalType": "string",
                    "name": "",
                    "type": "string"
                }
            ],
            "stateMutability": "view",
            "type": "function"
        },
        {
            "inputs": [],
            "name": "contractURI",
            "outputs": [
                {
                    "internalType": "string",
                    "name": "",
                    "type": "string"
                }
            ],
            "stateMutability": "view",
            "type": "function"
        },
        {
            "inputs": [],
            "name": "cost",
            "outputs": [
                {
                    "internalType": "uint256",
                    "name": "",
                    "type": "uint256"
                }
            ],
            "stateMutability": "view",
            "type": "function"
        },
        {
            "inputs": [],
            "name": "freeMint",
            "outputs": [
                {
                    "internalType": "uint256",
                    "name": "",
                    "type": "uint256"
                }
            ],
            "stateMutability": "view",
            "type": "function"
        },
        {
            "inputs": [],
            "name": "freemint",
            "outputs": [],
            "stateMutability": "payable",
            "type": "function"
        },
        {
            "inputs": [
                {
                    "internalType": "uint256",
                    "name": "tokenId",
                    "type": "uint256"
                }
            ],
            "name": "getApproved",
            "outputs": [
                {
                    "internalType": "address",
                    "name": "",
                    "type": "address"
                }
            ],
            "stateMutability": "view",
            "type": "function"
        },
        {
            "inputs": [
                {
                    "internalType": "address",
                    "name": "owner",
                    "type": "address"
                },
                {
                    "internalType": "address",
                    "name": "operator",
                    "type": "address"
                }
            ],
            "name": "isApprovedForAll",
            "outputs": [
                {
                    "internalType": "bool",
                    "name": "",
                    "type": "bool"
                }
            ],
            "stateMutability": "view",
            "type": "function"
        },
        {
            "inputs": [],
            "name": "maxMintAmount",
            "outputs": [
                {
                    "internalType": "uint256",
                    "name": "",
                    "type": "uint256"
                }
            ],
            "stateMutability": "view",
            "type": "function"
        },
        {
            "inputs": [],
            "name": "maxSupply",
            "outputs": [
                {
                    "internalType": "uint256",
                    "name": "",
                    "type": "uint256"
                }
            ],
            "stateMutability": "view",
            "type": "function"
        },
        {
            "inputs": [
                {
                    "internalType": "uint256",
                    "name": "_mintAmount",
                    "type": "uint256"
                },
                {
                    "internalType": "bytes32[]",
                    "name": "merkleProof",
                    "type": "bytes32[]"
                }
            ],
            "name": "mint",
            "outputs": [],
            "stateMutability": "payable",
            "type": "function"
        },
        {
            "inputs": [],
            "name": "name",
            "outputs": [
                {
                    "internalType": "string",
                    "name": "",
                    "type": "string"
                }
            ],
            "stateMutability": "view",
            "type": "function"
        },
        {
            "inputs": [],
            "name": "nftPerAddressLimit",
            "outputs": [
                {
                    "internalType": "uint256",
                    "name": "",
                    "type": "uint256"
                }
            ],
            "stateMutability": "view",
            "type": "function"
        },
        {
            "inputs": [],
            "name": "owner",
            "outputs": [
                {
                    "internalType": "address",
                    "name": "",
                    "type": "address"
                }
            ],
            "stateMutability": "view",
            "type": "function"
        },
        {
            "inputs": [
                {
                    "internalType": "uint256",
                    "name": "tokenId",
                    "type": "uint256"
                }
            ],
            "name": "ownerOf",
            "outputs": [
                {
                    "internalType": "address",
                    "name": "",
                    "type": "address"
                }
            ],
            "stateMutability": "view",
            "type": "function"
        },
        {
            "inputs": [
                {
                    "internalType": "bool",
                    "name": "_state",
                    "type": "bool"
                }
            ],
            "name": "pause",
            "outputs": [],
            "stateMutability": "nonpayable",
            "type": "function"
        },
        {
            "inputs": [],
            "name": "paused",
            "outputs": [
                {
                    "internalType": "bool",
                    "name": "",
                    "type": "bool"
                }
            ],
            "stateMutability": "view",
            "type": "function"
        },
        {
            "inputs": [],
            "name": "payments",
            "outputs": [
                {
                    "internalType": "address payable",
                    "name": "",
                    "type": "address"
                }
            ],
            "stateMutability": "view",
            "type": "function"
        },
        {
            "inputs": [],
            "name": "projectURI",
            "outputs": [
                {
                    "internalType": "string",
                    "name": "",
                    "type": "string"
                }
            ],
            "stateMutability": "view",
            "type": "function"
        },
        {
            "inputs": [],
            "name": "renounceOwnership",
            "outputs": [],
            "stateMutability": "nonpayable",
            "type": "function"
        },
        {
            "inputs": [
                {
                    "internalType": "address",
                    "name": "from",
                    "type": "address"
                },
                {
                    "internalType": "address",
                    "name": "to",
                    "type": "address"
                },
                {
                    "internalType": "uint256",
                    "name": "tokenId",
                    "type": "uint256"
                }
            ],
            "name": "safeTransferFrom",
            "outputs": [],
            "stateMutability": "nonpayable",
            "type": "function"
        },
        {
            "inputs": [
                {
                    "internalType": "address",
                    "name": "from",
                    "type": "address"
                },
                {
                    "internalType": "address",
                    "name": "to",
                    "type": "address"
                },
                {
                    "internalType": "uint256",
                    "name": "tokenId",
                    "type": "uint256"
                },
                {
                    "internalType": "bytes",
                    "name": "_data",
                    "type": "bytes"
                }
            ],
            "name": "safeTransferFrom",
            "outputs": [],
            "stateMutability": "nonpayable",
            "type": "function"
        },
        {
            "inputs": [
                {
                    "internalType": "address",
                    "name": "operator",
                    "type": "address"
                },
                {
                    "internalType": "bool",
                    "name": "approved",
                    "type": "bool"
                }
            ],
            "name": "setApprovalForAll",
            "outputs": [],
            "stateMutability": "nonpayable",
            "type": "function"
        },
        {
            "inputs": [
                {
                    "internalType": "string",
                    "name": "_newBaseExtension",
                    "type": "string"
                }
            ],
            "name": "setBaseExtension",
            "outputs": [],
            "stateMutability": "nonpayable",
            "type": "function"
        },
        {
            "inputs": [
                {
                    "internalType": "string",
                    "name": "_newBaseURI",
                    "type": "string"
                }
            ],
            "name": "setBaseURI",
            "outputs": [],
            "stateMutability": "nonpayable",
            "type": "function"
        },
        {
            "inputs": [
                {
                    "internalType": "address",
                    "name": "_user",
                    "type": "address"
                },
                {
                    "internalType": "bool",
                    "name": "enable",
                    "type": "bool"
                }
            ],
            "name": "setFreeMint",
            "outputs": [],
            "stateMutability": "nonpayable",
            "type": "function"
        },
        {
            "inputs": [
                {
                    "internalType": "uint256",
                    "name": "_limit",
                    "type": "uint256"
                }
            ],
            "name": "setNftPerAddressLimit",
            "outputs": [],
            "stateMutability": "nonpayable",
            "type": "function"
        },
        {
            "inputs": [
                {
                    "internalType": "string",
                    "name": "_notRevealedURI",
                    "type": "string"
                }
            ],
            "name": "setNotRevealedURI",
            "outputs": [],
            "stateMutability": "nonpayable",
            "type": "function"
        },
        {
            "inputs": [
                {
                    "internalType": "bool",
                    "name": "_reveal",
                    "type": "bool"
                }
            ],
            "name": "setReveal",
            "outputs": [],
            "stateMutability": "nonpayable",
            "type": "function"
        },
        {
            "inputs": [
                {
                    "internalType": "string",
                    "name": "_revealedURI",
                    "type": "string"
                }
            ],
            "name": "setRevealedURI",
            "outputs": [],
            "stateMutability": "nonpayable",
            "type": "function"
        },
        {
            "inputs": [
                {
                    "internalType": "uint256",
                    "name": "_newCost",
                    "type": "uint256"
                }
            ],
            "name": "setWhitelistCost",
            "outputs": [],
            "stateMutability": "nonpayable",
            "type": "function"
        },
        {
            "inputs": [
                {
                    "internalType": "bytes32",
                    "name": "merkleRoot",
                    "type": "bytes32"
                }
            ],
            "name": "setWhitelistMerkleRoot",
            "outputs": [],
            "stateMutability": "nonpayable",
            "type": "function"
        },
        {
            "inputs": [
                {
                    "internalType": "uint256",
                    "name": "_newmaxMintAmount",
                    "type": "uint256"
                }
            ],
            "name": "setmaxMintAmount",
            "outputs": [],
            "stateMutability": "nonpayable",
            "type": "function"
        },
        {
            "inputs": [
                {
                    "internalType": "bytes4",
                    "name": "interfaceId",
                    "type": "bytes4"
                }
            ],
            "name": "supportsInterface",
            "outputs": [
                {
                    "internalType": "bool",
                    "name": "",
                    "type": "bool"
                }
            ],
            "stateMutability": "view",
            "type": "function"
        },
        {
            "inputs": [],
            "name": "symbol",
            "outputs": [
                {
                    "internalType": "string",
                    "name": "",
                    "type": "string"
                }
            ],
            "stateMutability": "view",
            "type": "function"
        },
        {
            "inputs": [
                {
                    "internalType": "uint256",
                    "name": "index",
                    "type": "uint256"
                }
            ],
            "name": "tokenByIndex",
            "outputs": [
                {
                    "internalType": "uint256",
                    "name": "",
                    "type": "uint256"
                }
            ],
            "stateMutability": "view",
            "type": "function"
        },
        {
            "inputs": [
                {
                    "internalType": "address",
                    "name": "owner",
                    "type": "address"
                },
                {
                    "internalType": "uint256",
                    "name": "index",
                    "type": "uint256"
                }
            ],
            "name": "tokenOfOwnerByIndex",
            "outputs": [
                {
                    "internalType": "uint256",
                    "name": "",
                    "type": "uint256"
                }
            ],
            "stateMutability": "view",
            "type": "function"
        },
        {
            "inputs": [
                {
                    "internalType": "uint256",
                    "name": "tokenId",
                    "type": "uint256"
                }
            ],
            "name": "tokenURI",
            "outputs": [
                {
                    "internalType": "string",
                    "name": "",
                    "type": "string"
                }
            ],
            "stateMutability": "view",
            "type": "function"
        },
        {
            "inputs": [],
            "name": "totalSupply",
            "outputs": [
                {
                    "internalType": "uint256",
                    "name": "",
                    "type": "uint256"
                }
            ],
            "stateMutability": "view",
            "type": "function"
        },
        {
            "inputs": [
                {
                    "internalType": "address",
                    "name": "from",
                    "type": "address"
                },
                {
                    "internalType": "address",
                    "name": "to",
                    "type": "address"
                },
                {
                    "internalType": "uint256",
                    "name": "tokenId",
                    "type": "uint256"
                }
            ],
            "name": "transferFrom",
            "outputs": [],
            "stateMutability": "nonpayable",
            "type": "function"
        },
        {
            "inputs": [
                {
                    "internalType": "address",
                    "name": "newOwner",
                    "type": "address"
                }
            ],
            "name": "transferOwnership",
            "outputs": [],
            "stateMutability": "nonpayable",
            "type": "function"
        },
        {
            "inputs": [
                {
                    "internalType": "address",
                    "name": "_owner",
                    "type": "address"
                }
            ],
            "name": "walletOfOwner",
            "outputs": [
                {
                    "internalType": "uint256[]",
                    "name": "",
                    "type": "uint256[]"
                }
            ],
            "stateMutability": "view",
            "type": "function"
        },
        {
            "inputs": [],
            "name": "withdraw",
            "outputs": [],
            "stateMutability": "payable",
            "type": "function"
        }
    ],
    "bytecode": "0x60806040526040518060400160405280600581526020017f2e6a736f6e000000000000000000000000000000000000000000000000000000815250600c9080519060200190620000519291906200060a565b5060405180608001604052806043815260200162005e6e60439139600d9080519060200190620000839291906200060a565b5060405180608001604052806043815260200162005e2b60439139600e9080519060200190620000b59291906200060a565b5060405180608001604052806050815260200162005ddb60509139600f9080519060200190620000e79291906200060a565b5067058d15e17628000060105560006011556101f4601255600360135560036014556000601560006101000a81548160ff0219169083151502179055506000601560016101000a81548160ff0219169083151502179055503480156200014c57600080fd5b506040518060400160405280601181526020017f54726162616a6f2046696e20477261646f0000000000000000000000000000008152506040518060400160405280600381526020017f54464700000000000000000000000000000000000000000000000000000000008152508160009080519060200190620001d19291906200060a565b508060019080519060200190620001ea9291906200060a565b5050506200020d620002016200027a60201b60201c565b6200028260201b60201c565b6200021f60006200034860201b60201c565b73a3f896b4e0d7930df04a17e6e7b547a893455c42601960006101000a81548173ffffffffffffffffffffffffffffffffffffffff021916908373ffffffffffffffffffffffffffffffffffffffff160217905550620007a2565b600033905090565b6000600a60009054906101000a900473ffffffffffffffffffffffffffffffffffffffff16905081600a60006101000a81548173ffffffffffffffffffffffffffffffffffffffff021916908373ffffffffffffffffffffffffffffffffffffffff1602179055508173ffffffffffffffffffffffffffffffffffffffff168173ffffffffffffffffffffffffffffffffffffffff167f8be0079c531659141344cd1fd0a4f28419497f9722a3daafe3b4186f6b6457e060405160405180910390a35050565b620003586200027a60201b60201c565b73ffffffffffffffffffffffffffffffffffffffff166200037e6200053560201b60201c565b73ffffffffffffffffffffffffffffffffffffffff1614620003d7576040517f08c379a0000000000000000000000000000000000000000000000000000000008152600401620003ce90620006e1565b60405180910390fd5b6000151581151514156200048e5762000488600d8054620003f89062000714565b80601f0160208091040260200160405190810160405280929190818152602001828054620004269062000714565b8015620004775780601f106200044b5761010080835404028352916020019162000477565b820191906000526020600020905b8154815290600101906020018083116200045957829003601f168201915b50505050506200055f60201b60201c565b62000532565b62000531600e8054620004a19062000714565b80601f0160208091040260200160405190810160405280929190818152602001828054620004cf9062000714565b8015620005205780601f10620004f45761010080835404028352916020019162000520565b820191906000526020600020905b8154815290600101906020018083116200050257829003601f168201915b50505050506200055f60201b60201c565b5b50565b6000600a60009054906101000a900473ffffffffffffffffffffffffffffffffffffffff16905090565b6200056f6200027a60201b60201c565b73ffffffffffffffffffffffffffffffffffffffff16620005956200053560201b60201c565b73ffffffffffffffffffffffffffffffffffffffff1614620005ee576040517f08c379a0000000000000000000000000000000000000000000000000000000008152600401620005e590620006e1565b60405180910390fd5b80600b9080519060200190620006069291906200060a565b5050565b828054620006189062000714565b90600052602060002090601f0160209004810192826200063c576000855562000688565b82601f106200065757805160ff191683800117855562000688565b8280016001018555821562000688579182015b82811115620006875782518255916020019190600101906200066a565b5b5090506200069791906200069b565b5090565b5b80821115620006b65760008160009055506001016200069c565b5090565b6000620006c960208362000703565b9150620006d68262000779565b602082019050919050565b60006020820190508181036000830152620006fc81620006ba565b9050919050565b600082825260208201905092915050565b600060028204905060018216806200072d57607f821691505b602082108114156200074457620007436200074a565b5b50919050565b7f4e487b7100000000000000000000000000000000000000000000000000000000600052602260045260246000fd5b7f4f776e61626c653a2063616c6c6572206973206e6f7420746865206f776e6572600082015250565b61562980620007b26000396000f3fe6080604052600436106102675760003560e01c806370a0823111610144578063c6682862116100b6578063da3ef23f1161007a578063da3ef23f146108fe578063e8a3d48514610927578063e985e9c514610952578063f2c4ce1e1461098f578063f2fde38b146109b8578063f9cb63ac146109e157610267565b8063c668286214610819578063c87b56dd14610844578063d0eb26b014610881578063d49479eb146108aa578063d5abeb01146108d357610267565b8063a22cb46511610108578063a22cb4651461072c578063a6d23e1014610755578063b88d4fde14610780578063ba41b0c6146107a9578063ba7d2c76146107c5578063bd32fb66146107f057610267565b806370a0823114610659578063715018a6146106965780637f00c7a6146106ad5780638da5cb5b146106d657806395d89b411461070157610267565b8063326d4388116101dd57806355f804b3116101a157806355f804b3146105495780635b70ea9f146105725780635c975abb1461059d5780636352211e146105c857806366f2cff3146106055780636e6fb49f1461062e57610267565b8063326d4388146104735780633ccfd60b1461049c57806342842e0e146104a6578063438b6300146104cf5780634f6ccce71461050c57610267565b806313faede61161022f57806313faede61461036357806318160ddd1461038e578063239c70ae146103b957806323b872dd146103e45780632a3f300c1461040d5780632f745c591461043657610267565b806301ffc9a71461026c57806302329a29146102a957806306fdde03146102d2578063081812fc146102fd578063095ea7b31461033a575b600080fd5b34801561027857600080fd5b50610293600480360381019061028e9190613e92565b6109eb565b6040516102a09190614679565b60405180910390f35b3480156102b557600080fd5b506102d060048036038101906102cb9190613e40565b610a65565b005b3480156102de57600080fd5b506102e7610afe565b6040516102f49190614694565b60405180910390f35b34801561030957600080fd5b50610324600480360381019061031f9190613f25565b610b90565b60405161033191906145d5565b60405180910390f35b34801561034657600080fd5b50610361600480360381019061035c9190613e04565b610c15565b005b34801561036f57600080fd5b50610378610d2d565b6040516103859190614a16565b60405180910390f35b34801561039a57600080fd5b506103a3610d33565b6040516103b09190614a16565b60405180910390f35b3480156103c557600080fd5b506103ce610d40565b6040516103db9190614a16565b60405180910390f35b3480156103f057600080fd5b5061040b60048036038101906104069190613cfe565b610d46565b005b34801561041957600080fd5b50610434600480360381019061042f9190613e40565b610da6565b005b34801561044257600080fd5b5061045d60048036038101906104589190613e04565b610f5e565b60405161046a9190614a16565b60405180910390f35b34801561047f57600080fd5b5061049a60048036038101906104959190613ee4565b611003565b005b6104a4611099565b005b3480156104b257600080fd5b506104cd60048036038101906104c89190613cfe565b611195565b005b3480156104db57600080fd5b506104f660048036038101906104f19190613c99565b6111b5565b6040516105039190614657565b60405180910390f35b34801561051857600080fd5b50610533600480360381019061052e9190613f25565b6112af565b6040516105409190614a16565b60405180910390f35b34801561055557600080fd5b50610570600480360381019061056b9190613ee4565b611346565b005b34801561057e57600080fd5b506105876113dc565b6040516105949190614a16565b60405180910390f35b3480156105a957600080fd5b506105b26113e2565b6040516105bf9190614679565b60405180910390f35b3480156105d457600080fd5b506105ef60048036038101906105ea9190613f25565b6113f5565b6040516105fc91906145d5565b60405180910390f35b34801561061157600080fd5b5061062c60048036038101906106279190613dc8565b6114a7565b005b34801561063a57600080fd5b5061064361157e565b6040516106509190614694565b60405180910390f35b34801561066557600080fd5b50610680600480360381019061067b9190613c99565b61160c565b60405161068d9190614a16565b60405180910390f35b3480156106a257600080fd5b506106ab6116c4565b005b3480156106b957600080fd5b506106d460048036038101906106cf9190613f25565b61174c565b005b3480156106e257600080fd5b506106eb6117d2565b6040516106f891906145d5565b60405180910390f35b34801561070d57600080fd5b506107166117fc565b6040516107239190614694565b60405180910390f35b34801561073857600080fd5b50610753600480360381019061074e9190613dc8565b61188e565b005b34801561076157600080fd5b5061076a6118a4565b60405161077791906145f0565b60405180910390f35b34801561078c57600080fd5b506107a760048036038101906107a29190613d4d565b6118ca565b005b6107c360048036038101906107be9190613f4e565b61192c565b005b3480156107d157600080fd5b506107da611d66565b6040516107e79190614a16565b60405180910390f35b3480156107fc57600080fd5b5061081760048036038101906108129190613e69565b611d6c565b005b34801561082557600080fd5b5061082e611df2565b60405161083b9190614694565b60405180910390f35b34801561085057600080fd5b5061086b60048036038101906108669190613f25565b611e80565b6040516108789190614694565b60405180910390f35b34801561088d57600080fd5b506108a860048036038101906108a39190613f25565b611f2a565b005b3480156108b657600080fd5b506108d160048036038101906108cc9190613f25565b611fb0565b005b3480156108df57600080fd5b506108e8612036565b6040516108f59190614a16565b60405180910390f35b34801561090a57600080fd5b5061092560048036038101906109209190613ee4565b61203c565b005b34801561093357600080fd5b5061093c6120d2565b6040516109499190614694565b60405180910390f35b34801561095e57600080fd5b5061097960048036038101906109749190613cc2565b612164565b6040516109869190614679565b60405180910390f35b34801561099b57600080fd5b506109b660048036038101906109b19190613ee4565b6121f8565b005b3480156109c457600080fd5b506109df60048036038101906109da9190613c99565b61228e565b005b6109e9612386565b005b60007f780e9d63000000000000000000000000000000000000000000000000000000007bffffffffffffffffffffffffffffffffffffffffffffffffffffffff1916827bffffffffffffffffffffffffffffffffffffffffffffffffffffffff19161480610a5e5750610a5d82612666565b5b9050919050565b610a6d612748565b73ffffffffffffffffffffffffffffffffffffffff16610a8b6117d2565b73ffffffffffffffffffffffffffffffffffffffff1614610ae1576040517f08c379a0000000000000000000000000000000000000000000000000000000008152600401610ad8906148f6565b60405180910390fd5b80601560006101000a81548160ff02191690831515021790555050565b606060008054610b0d90614d3b565b80601f0160208091040260200160405190810160405280929190818152602001828054610b3990614d3b565b8015610b865780601f10610b5b57610100808354040283529160200191610b86565b820191906000526020600020905b815481529060010190602001808311610b6957829003601f168201915b5050505050905090565b6000610b9b82612750565b610bda576040517f08c379a0000000000000000000000000000000000000000000000000000000008152600401610bd1906148d6565b60405180910390fd5b6004600083815260200190815260200160002060009054906101000a900473ffffffffffffffffffffffffffffffffffffffff169050919050565b6000610c20826113f5565b90508073ffffffffffffffffffffffffffffffffffffffff168373ffffffffffffffffffffffffffffffffffffffff161415610c91576040517f08c379a0000000000000000000000000000000000000000000000000000000008152600401610c8890614976565b60405180910390fd5b8073ffffffffffffffffffffffffffffffffffffffff16610cb0612748565b73ffffffffffffffffffffffffffffffffffffffff161480610cdf5750610cde81610cd9612748565b612164565b5b610d1e576040517f08c379a0000000000000000000000000000000000000000000000000000000008152600401610d1590614836565b60405180910390fd5b610d2883836127bc565b505050565b60105481565b6000600880549050905090565b60135481565b610d57610d51612748565b82612875565b610d96576040517f08c379a0000000000000000000000000000000000000000000000000000000008152600401610d8d90614996565b60405180910390fd5b610da1838383612953565b505050565b610dae612748565b73ffffffffffffffffffffffffffffffffffffffff16610dcc6117d2565b73ffffffffffffffffffffffffffffffffffffffff1614610e22576040517f08c379a0000000000000000000000000000000000000000000000000000000008152600401610e19906148f6565b60405180910390fd5b600015158115151415610ec757610ec2600d8054610e3f90614d3b565b80601f0160208091040260200160405190810160405280929190818152602001828054610e6b90614d3b565b8015610eb85780601f10610e8d57610100808354040283529160200191610eb8565b820191906000526020600020905b815481529060010190602001808311610e9b57829003601f168201915b5050505050611346565b610f5b565b610f5a600e8054610ed790614d3b565b80601f0160208091040260200160405190810160405280929190818152602001828054610f0390614d3b565b8015610f505780601f10610f2557610100808354040283529160200191610f50565b820191906000526020600020905b815481529060010190602001808311610f3357829003601f168201915b5050505050611346565b5b50565b6000610f698361160c565b8210610faa576040517f08c379a0000000000000000000000000000000000000000000000000000000008152600401610fa1906146f6565b60405180910390fd5b600660008473ffffffffffffffffffffffffffffffffffffffff1673ffffffffffffffffffffffffffffffffffffffff168152602001908152602001600020600083815260200190815260200160002054905092915050565b61100b612748565b73ffffffffffffffffffffffffffffffffffffffff166110296117d2565b73ffffffffffffffffffffffffffffffffffffffff161461107f576040517f08c379a0000000000000000000000000000000000000000000000000000000008152600401611076906148f6565b60405180910390fd5b80600e9080519060200190611095929190613a5e565b5050565b6110a1612748565b73ffffffffffffffffffffffffffffffffffffffff166110bf6117d2565b73ffffffffffffffffffffffffffffffffffffffff1614611115576040517f08c379a000000000000000000000000000000000000000000000000000000000815260040161110c906148f6565b60405180910390fd5b600061111f6117d2565b73ffffffffffffffffffffffffffffffffffffffff1647604051611142906145c0565b60006040518083038185875af1925050503d806000811461117f576040519150601f19603f3d011682016040523d82523d6000602084013e611184565b606091505b505090508061119257600080fd5b50565b6111b0838383604051806020016040528060008152506118ca565b505050565b606060006111c28361160c565b905060008167ffffffffffffffff811115611206577f4e487b7100000000000000000000000000000000000000000000000000000000600052604160045260246000fd5b6040519080825280602002602001820160405280156112345781602001602082028036833780820191505090505b50905060005b828110156112a45761124c8582610f5e565b828281518110611285577f4e487b7100000000000000000000000000000000000000000000000000000000600052603260045260246000fd5b602002602001018181525050808061129c90614d9e565b91505061123a565b508092505050919050565b60006112b9610d33565b82106112fa576040517f08c379a00000000000000000000000000000000000000000000000000000000081526004016112f1906149b6565b60405180910390fd5b60088281548110611334577f4e487b7100000000000000000000000000000000000000000000000000000000600052603260045260246000fd5b90600052602060002001549050919050565b61134e612748565b73ffffffffffffffffffffffffffffffffffffffff1661136c6117d2565b73ffffffffffffffffffffffffffffffffffffffff16146113c2576040517f08c379a00000000000000000000000000000000000000000000000000000000081526004016113b9906148f6565b60405180910390fd5b80600b90805190602001906113d8929190613a5e565b5050565b60115481565b601560009054906101000a900460ff1681565b6000806002600084815260200190815260200160002060009054906101000a900473ffffffffffffffffffffffffffffffffffffffff169050600073ffffffffffffffffffffffffffffffffffffffff168173ffffffffffffffffffffffffffffffffffffffff16141561149e576040517f08c379a000000000000000000000000000000000000000000000000000000000815260040161149590614876565b60405180910390fd5b80915050919050565b6114af612748565b73ffffffffffffffffffffffffffffffffffffffff166114cd6117d2565b73ffffffffffffffffffffffffffffffffffffffff1614611523576040517f08c379a000000000000000000000000000000000000000000000000000000000815260040161151a906148f6565b60405180910390fd5b80601660008473ffffffffffffffffffffffffffffffffffffffff1673ffffffffffffffffffffffffffffffffffffffff16815260200190815260200160002060006101000a81548160ff0219169083151502179055505050565b600f805461158b90614d3b565b80601f01602080910402602001604051908101604052809291908181526020018280546115b790614d3b565b80156116045780601f106115d957610100808354040283529160200191611604565b820191906000526020600020905b8154815290600101906020018083116115e757829003601f168201915b505050505081565b60008073ffffffffffffffffffffffffffffffffffffffff168273ffffffffffffffffffffffffffffffffffffffff16141561167d576040517f08c379a000000000000000000000000000000000000000000000000000000000815260040161167490614856565b60405180910390fd5b600360008373ffffffffffffffffffffffffffffffffffffffff1673ffffffffffffffffffffffffffffffffffffffff168152602001908152602001600020549050919050565b6116cc612748565b73ffffffffffffffffffffffffffffffffffffffff166116ea6117d2565b73ffffffffffffffffffffffffffffffffffffffff1614611740576040517f08c379a0000000000000000000000000000000000000000000000000000000008152600401611737906148f6565b60405180910390fd5b61174a6000612bba565b565b611754612748565b73ffffffffffffffffffffffffffffffffffffffff166117726117d2565b73ffffffffffffffffffffffffffffffffffffffff16146117c8576040517f08c379a00000000000000000000000000000000000000000000000000000000081526004016117bf906148f6565b60405180910390fd5b8060138190555050565b6000600a60009054906101000a900473ffffffffffffffffffffffffffffffffffffffff16905090565b60606001805461180b90614d3b565b80601f016020809104026020016040519081016040528092919081815260200182805461183790614d3b565b80156118845780601f1061185957610100808354040283529160200191611884565b820191906000526020600020905b81548152906001019060200180831161186757829003601f168201915b5050505050905090565b6118a0611899612748565b8383612c80565b5050565b601960009054906101000a900473ffffffffffffffffffffffffffffffffffffffff1681565b6118db6118d5612748565b83612875565b61191a576040517f08c379a000000000000000000000000000000000000000000000000000000000815260040161191190614996565b60405180910390fd5b61192684848484612ded565b50505050565b81816018546119396117d2565b73ffffffffffffffffffffffffffffffffffffffff163373ffffffffffffffffffffffffffffffffffffffff1614611a1d576119dd838380806020026020016040519081016040528093929190818152602001838360200280828437600081840152601f19601f8201169050808301925050505050505082336040516020016119c29190614574565b60405160208183030381529060405280519060200120612e49565b611a1c576040517f08c379a0000000000000000000000000000000000000000000000000000000008152600401611a1390614816565b60405180910390fd5b5b601560009054906101000a900460ff1615611a6d576040517f08c379a0000000000000000000000000000000000000000000000000000000008152600401611a64906149d6565b60405180910390fd5b6000611a77610d33565b905060125487611a85610d33565b611a8f9190614b54565b1115611ad0576040517f08c379a0000000000000000000000000000000000000000000000000000000008152600401611ac790614796565b60405180910390fd5b60008711611b13576040517f08c379a0000000000000000000000000000000000000000000000000000000008152600401611b0a906149f6565b60405180910390fd5b601354871115611b58576040517f08c379a0000000000000000000000000000000000000000000000000000000008152600401611b4f90614956565b60405180910390fd5b611b606117d2565b73ffffffffffffffffffffffffffffffffffffffff163373ffffffffffffffffffffffffffffffffffffffff1614611cd1576000601760003373ffffffffffffffffffffffffffffffffffffffff1673ffffffffffffffffffffffffffffffffffffffff1681526020019081526020016000205490506014548882611be59190614b54565b1115611c26576040517f08c379a0000000000000000000000000000000000000000000000000000000008152600401611c1d906146b6565b60405180910390fd5b60011515601660003373ffffffffffffffffffffffffffffffffffffffff1673ffffffffffffffffffffffffffffffffffffffff16815260200190815260200160002060009054906101000a900460ff16151514611ccf5787601154611c8c9190614bdb565b341015611cce576040517f08c379a0000000000000000000000000000000000000000000000000000000008152600401611cc590614896565b60405180910390fd5b5b505b6000600190505b878111611d5c57601760003373ffffffffffffffffffffffffffffffffffffffff1673ffffffffffffffffffffffffffffffffffffffff1681526020019081526020016000206000815480929190611d2f90614d9e565b9190505550611d49338284611d449190614b54565b612e60565b8080611d5490614d9e565b915050611cd8565b5050505050505050565b60145481565b611d74612748565b73ffffffffffffffffffffffffffffffffffffffff16611d926117d2565b73ffffffffffffffffffffffffffffffffffffffff1614611de8576040517f08c379a0000000000000000000000000000000000000000000000000000000008152600401611ddf906148f6565b60405180910390fd5b8060188190555050565b600c8054611dff90614d3b565b80601f0160208091040260200160405190810160405280929190818152602001828054611e2b90614d3b565b8015611e785780601f10611e4d57610100808354040283529160200191611e78565b820191906000526020600020905b815481529060010190602001808311611e5b57829003601f168201915b505050505081565b6060611e8b82612750565b611eca576040517f08c379a0000000000000000000000000000000000000000000000000000000008152600401611ec190614936565b60405180910390fd5b6000611ed4612e7e565b90506000815111611ef45760405180602001604052806000815250611f22565b80611efe84612f10565b600c604051602001611f129392919061458f565b6040516020818303038152906040525b915050919050565b611f32612748565b73ffffffffffffffffffffffffffffffffffffffff16611f506117d2565b73ffffffffffffffffffffffffffffffffffffffff1614611fa6576040517f08c379a0000000000000000000000000000000000000000000000000000000008152600401611f9d906148f6565b60405180910390fd5b8060148190555050565b611fb8612748565b73ffffffffffffffffffffffffffffffffffffffff16611fd66117d2565b73ffffffffffffffffffffffffffffffffffffffff161461202c576040517f08c379a0000000000000000000000000000000000000000000000000000000008152600401612023906148f6565b60405180910390fd5b8060108190555050565b60125481565b612044612748565b73ffffffffffffffffffffffffffffffffffffffff166120626117d2565b73ffffffffffffffffffffffffffffffffffffffff16146120b8576040517f08c379a00000000000000000000000000000000000000000000000000000000081526004016120af906148f6565b60405180910390fd5b80600c90805190602001906120ce929190613a5e565b5050565b6060600f80546120e190614d3b565b80601f016020809104026020016040519081016040528092919081815260200182805461210d90614d3b565b801561215a5780601f1061212f5761010080835404028352916020019161215a565b820191906000526020600020905b81548152906001019060200180831161213d57829003601f168201915b5050505050905090565b6000600560008473ffffffffffffffffffffffffffffffffffffffff1673ffffffffffffffffffffffffffffffffffffffff16815260200190815260200160002060008373ffffffffffffffffffffffffffffffffffffffff1673ffffffffffffffffffffffffffffffffffffffff16815260200190815260200160002060009054906101000a900460ff16905092915050565b612200612748565b73ffffffffffffffffffffffffffffffffffffffff1661221e6117d2565b73ffffffffffffffffffffffffffffffffffffffff1614612274576040517f08c379a000000000000000000000000000000000000000000000000000000000815260040161226b906148f6565b60405180910390fd5b80600d908051906020019061228a929190613a5e565b5050565b612296612748565b73ffffffffffffffffffffffffffffffffffffffff166122b46117d2565b73ffffffffffffffffffffffffffffffffffffffff161461230a576040517f08c379a0000000000000000000000000000000000000000000000000000000008152600401612301906148f6565b60405180910390fd5b600073ffffffffffffffffffffffffffffffffffffffff168173ffffffffffffffffffffffffffffffffffffffff16141561237a576040517f08c379a000000000000000000000000000000000000000000000000000000000815260040161237190614736565b60405180910390fd5b61238381612bba565b50565b3361238f6117d2565b73ffffffffffffffffffffffffffffffffffffffff163373ffffffffffffffffffffffffffffffffffffffff16146124555760011515601660008373ffffffffffffffffffffffffffffffffffffffff1673ffffffffffffffffffffffffffffffffffffffff16815260200190815260200160002060009054906101000a900460ff16151514612454576040517f08c379a000000000000000000000000000000000000000000000000000000000815260040161244b90614916565b60405180910390fd5b5b601560009054906101000a900460ff16156124a5576040517f08c379a000000000000000000000000000000000000000000000000000000000815260040161249c906149d6565b60405180910390fd5b60006124af610d33565b905060125460016124be610d33565b6124c89190614b54565b1115612509576040517f08c379a000000000000000000000000000000000000000000000000000000000815260040161250090614796565b60405180910390fd5b6000601760003373ffffffffffffffffffffffffffffffffffffffff1673ffffffffffffffffffffffffffffffffffffffff16815260200190815260200160002054905060145460018261255d9190614b54565b111561259e576040517f08c379a0000000000000000000000000000000000000000000000000000000008152600401612595906146d6565b60405180910390fd5b601760003373ffffffffffffffffffffffffffffffffffffffff1673ffffffffffffffffffffffffffffffffffffffff16815260200190815260200160002060008154809291906125ee90614d9e565b9190505550612609336001846126049190614b54565b612e60565b6000601660003373ffffffffffffffffffffffffffffffffffffffff1673ffffffffffffffffffffffffffffffffffffffff16815260200190815260200160002060006101000a81548160ff021916908315150217905550505050565b60007f80ac58cd000000000000000000000000000000000000000000000000000000007bffffffffffffffffffffffffffffffffffffffffffffffffffffffff1916827bffffffffffffffffffffffffffffffffffffffffffffffffffffffff1916148061273157507f5b5e139f000000000000000000000000000000000000000000000000000000007bffffffffffffffffffffffffffffffffffffffffffffffffffffffff1916827bffffffffffffffffffffffffffffffffffffffffffffffffffffffff1916145b806127415750612740826130bd565b5b9050919050565b600033905090565b60008073ffffffffffffffffffffffffffffffffffffffff166002600084815260200190815260200160002060009054906101000a900473ffffffffffffffffffffffffffffffffffffffff1673ffffffffffffffffffffffffffffffffffffffff1614159050919050565b816004600083815260200190815260200160002060006101000a81548173ffffffffffffffffffffffffffffffffffffffff021916908373ffffffffffffffffffffffffffffffffffffffff160217905550808273ffffffffffffffffffffffffffffffffffffffff1661282f836113f5565b73ffffffffffffffffffffffffffffffffffffffff167f8c5be1e5ebec7d5bd14f71427d1e84f3dd0314c0f7b2291e5b200ac8c7c3b92560405160405180910390a45050565b600061288082612750565b6128bf576040517f08c379a00000000000000000000000000000000000000000000000000000000081526004016128b6906147f6565b60405180910390fd5b60006128ca836113f5565b90508073ffffffffffffffffffffffffffffffffffffffff168473ffffffffffffffffffffffffffffffffffffffff16148061290c575061290b8185612164565b5b8061294a57508373ffffffffffffffffffffffffffffffffffffffff1661293284610b90565b73ffffffffffffffffffffffffffffffffffffffff16145b91505092915050565b8273ffffffffffffffffffffffffffffffffffffffff16612973826113f5565b73ffffffffffffffffffffffffffffffffffffffff16146129c9576040517f08c379a00000000000000000000000000000000000000000000000000000000081526004016129c090614756565b60405180910390fd5b600073ffffffffffffffffffffffffffffffffffffffff168273ffffffffffffffffffffffffffffffffffffffff161415612a39576040517f08c379a0000000000000000000000000000000000000000000000000000000008152600401612a30906147b6565b60405180910390fd5b612a44838383613127565b612a4f6000826127bc565b6001600360008573ffffffffffffffffffffffffffffffffffffffff1673ffffffffffffffffffffffffffffffffffffffff1681526020019081526020016000206000828254612a9f9190614c35565b925050819055506001600360008473ffffffffffffffffffffffffffffffffffffffff1673ffffffffffffffffffffffffffffffffffffffff1681526020019081526020016000206000828254612af69190614b54565b92505081905550816002600083815260200190815260200160002060006101000a81548173ffffffffffffffffffffffffffffffffffffffff021916908373ffffffffffffffffffffffffffffffffffffffff160217905550808273ffffffffffffffffffffffffffffffffffffffff168473ffffffffffffffffffffffffffffffffffffffff167fddf252ad1be2c89b69c2b068fc378daa952ba7f163c4a11628f55a4df523b3ef60405160405180910390a4612bb583838361323b565b505050565b6000600a60009054906101000a900473ffffffffffffffffffffffffffffffffffffffff16905081600a60006101000a81548173ffffffffffffffffffffffffffffffffffffffff021916908373ffffffffffffffffffffffffffffffffffffffff1602179055508173ffffffffffffffffffffffffffffffffffffffff168173ffffffffffffffffffffffffffffffffffffffff167f8be0079c531659141344cd1fd0a4f28419497f9722a3daafe3b4186f6b6457e060405160405180910390a35050565b8173ffffffffffffffffffffffffffffffffffffffff168373ffffffffffffffffffffffffffffffffffffffff161415612cef576040517f08c379a0000000000000000000000000000000000000000000000000000000008152600401612ce6906147d6565b60405180910390fd5b80600560008573ffffffffffffffffffffffffffffffffffffffff1673ffffffffffffffffffffffffffffffffffffffff16815260200190815260200160002060008473ffffffffffffffffffffffffffffffffffffffff1673ffffffffffffffffffffffffffffffffffffffff16815260200190815260200160002060006101000a81548160ff0219169083151502179055508173ffffffffffffffffffffffffffffffffffffffff168373ffffffffffffffffffffffffffffffffffffffff167f17307eab39ab6107e8899845ad3d59bd9653f200f220920489ca2b5937696c3183604051612de09190614679565b60405180910390a3505050565b612df8848484612953565b612e0484848484613240565b612e43576040517f08c379a0000000000000000000000000000000000000000000000000000000008152600401612e3a90614716565b60405180910390fd5b50505050565b600082612e5685846133d7565b1490509392505050565b612e7a828260405180602001604052806000815250613472565b5050565b6060600b8054612e8d90614d3b565b80601f0160208091040260200160405190810160405280929190818152602001828054612eb990614d3b565b8015612f065780601f10612edb57610100808354040283529160200191612f06565b820191906000526020600020905b815481529060010190602001808311612ee957829003601f168201915b5050505050905090565b60606000821415612f58576040518060400160405280600181526020017f300000000000000000000000000000000000000000000000000000000000000081525090506130b8565b600082905060005b60008214612f8a578080612f7390614d9e565b915050600a82612f839190614baa565b9150612f60565b60008167ffffffffffffffff811115612fcc577f4e487b7100000000000000000000000000000000000000000000000000000000600052604160045260246000fd5b6040519080825280601f01601f191660200182016040528015612ffe5781602001600182028036833780820191505090505b5090505b600085146130b1576001826130179190614c35565b9150600a856130269190614e0b565b60306130329190614b54565b60f81b81838151811061306e577f4e487b7100000000000000000000000000000000000000000000000000000000600052603260045260246000fd5b60200101907effffffffffffffffffffffffffffffffffffffffffffffffffffffffffffff1916908160001a905350600a856130aa9190614baa565b9450613002565b8093505050505b919050565b60007f01ffc9a7000000000000000000000000000000000000000000000000000000007bffffffffffffffffffffffffffffffffffffffffffffffffffffffff1916827bffffffffffffffffffffffffffffffffffffffffffffffffffffffff1916149050919050565b6131328383836134cd565b600073ffffffffffffffffffffffffffffffffffffffff168373ffffffffffffffffffffffffffffffffffffffff16141561317557613170816134d2565b6131b4565b8173ffffffffffffffffffffffffffffffffffffffff168373ffffffffffffffffffffffffffffffffffffffff16146131b3576131b2838261351b565b5b5b600073ffffffffffffffffffffffffffffffffffffffff168273ffffffffffffffffffffffffffffffffffffffff1614156131f7576131f281613688565b613236565b8273ffffffffffffffffffffffffffffffffffffffff168273ffffffffffffffffffffffffffffffffffffffff16146132355761323482826137cb565b5b5b505050565b505050565b60006132618473ffffffffffffffffffffffffffffffffffffffff1661384a565b156133ca578373ffffffffffffffffffffffffffffffffffffffff1663150b7a0261328a612748565b8786866040518563ffffffff1660e01b81526004016132ac949392919061460b565b602060405180830381600087803b1580156132c657600080fd5b505af19250505080156132f757506040513d601f19601f820116820180604052508101906132f49190613ebb565b60015b61337a573d8060008114613327576040519150601f19603f3d011682016040523d82523d6000602084013e61332c565b606091505b50600081511415613372576040517f08c379a000000000000000000000000000000000000000000000000000000000815260040161336990614716565b60405180910390fd5b805181602001fd5b63150b7a0260e01b7bffffffffffffffffffffffffffffffffffffffffffffffffffffffff1916817bffffffffffffffffffffffffffffffffffffffffffffffffffffffff1916149150506133cf565b600190505b949350505050565b60008082905060005b8451811015613467576000858281518110613424577f4e487b7100000000000000000000000000000000000000000000000000000000600052603260045260246000fd5b602002602001015190508083116134465761343f838261386d565b9250613453565b613450818461386d565b92505b50808061345f90614d9e565b9150506133e0565b508091505092915050565b61347c8383613884565b6134896000848484613240565b6134c8576040517f08c379a00000000000000000000000000000000000000000000000000000000081526004016134bf90614716565b60405180910390fd5b505050565b505050565b6008805490506009600083815260200190815260200160002081905550600881908060018154018082558091505060019003906000526020600020016000909190919091505550565b600060016135288461160c565b6135329190614c35565b9050600060076000848152602001908152602001600020549050818114613617576000600660008673ffffffffffffffffffffffffffffffffffffffff1673ffffffffffffffffffffffffffffffffffffffff168152602001908152602001600020600084815260200190815260200160002054905080600660008773ffffffffffffffffffffffffffffffffffffffff1673ffffffffffffffffffffffffffffffffffffffff168152602001908152602001600020600084815260200190815260200160002081905550816007600083815260200190815260200160002081905550505b6007600084815260200190815260200160002060009055600660008573ffffffffffffffffffffffffffffffffffffffff1673ffffffffffffffffffffffffffffffffffffffff16815260200190815260200160002060008381526020019081526020016000206000905550505050565b6000600160088054905061369c9190614c35565b90506000600960008481526020019081526020016000205490506000600883815481106136f2577f4e487b7100000000000000000000000000000000000000000000000000000000600052603260045260246000fd5b90600052602060002001549050806008838154811061373a577f4e487b7100000000000000000000000000000000000000000000000000000000600052603260045260246000fd5b9060005260206000200181905550816009600083815260200190815260200160002081905550600960008581526020019081526020016000206000905560088054806137af577f4e487b7100000000000000000000000000000000000000000000000000000000600052603160045260246000fd5b6001900381819060005260206000200160009055905550505050565b60006137d68361160c565b905081600660008573ffffffffffffffffffffffffffffffffffffffff1673ffffffffffffffffffffffffffffffffffffffff168152602001908152602001600020600083815260200190815260200160002081905550806007600084815260200190815260200160002081905550505050565b6000808273ffffffffffffffffffffffffffffffffffffffff163b119050919050565b600082600052816020526040600020905092915050565b600073ffffffffffffffffffffffffffffffffffffffff168273ffffffffffffffffffffffffffffffffffffffff1614156138f4576040517f08c379a00000000000000000000000000000000000000000000000000000000081526004016138eb906148b6565b60405180910390fd5b6138fd81612750565b1561393d576040517f08c379a000000000000000000000000000000000000000000000000000000000815260040161393490614776565b60405180910390fd5b61394960008383613127565b6001600360008473ffffffffffffffffffffffffffffffffffffffff1673ffffffffffffffffffffffffffffffffffffffff16815260200190815260200160002060008282546139999190614b54565b92505081905550816002600083815260200190815260200160002060006101000a81548173ffffffffffffffffffffffffffffffffffffffff021916908373ffffffffffffffffffffffffffffffffffffffff160217905550808273ffffffffffffffffffffffffffffffffffffffff16600073ffffffffffffffffffffffffffffffffffffffff167fddf252ad1be2c89b69c2b068fc378daa952ba7f163c4a11628f55a4df523b3ef60405160405180910390a4613a5a6000838361323b565b5050565b828054613a6a90614d3b565b90600052602060002090601f016020900481019282613a8c5760008555613ad3565b82601f10613aa557805160ff1916838001178555613ad3565b82800160010185558215613ad3579182015b82811115613ad2578251825591602001919060010190613ab7565b5b509050613ae09190613ae4565b5090565b5b80821115613afd576000816000905550600101613ae5565b5090565b6000613b14613b0f84614a56565b614a31565b905082815260208101848484011115613b2c57600080fd5b613b37848285614cf9565b509392505050565b6000613b52613b4d84614a87565b614a31565b905082815260208101848484011115613b6a57600080fd5b613b75848285614cf9565b509392505050565b600081359050613b8c81615580565b92915050565b60008083601f840112613ba457600080fd5b8235905067ffffffffffffffff811115613bbd57600080fd5b602083019150836020820283011115613bd557600080fd5b9250929050565b600081359050613beb81615597565b92915050565b600081359050613c00816155ae565b92915050565b600081359050613c15816155c5565b92915050565b600081519050613c2a816155c5565b92915050565b600082601f830112613c4157600080fd5b8135613c51848260208601613b01565b91505092915050565b600082601f830112613c6b57600080fd5b8135613c7b848260208601613b3f565b91505092915050565b600081359050613c93816155dc565b92915050565b600060208284031215613cab57600080fd5b6000613cb984828501613b7d565b91505092915050565b60008060408385031215613cd557600080fd5b6000613ce385828601613b7d565b9250506020613cf485828601613b7d565b9150509250929050565b600080600060608486031215613d1357600080fd5b6000613d2186828701613b7d565b9350506020613d3286828701613b7d565b9250506040613d4386828701613c84565b9150509250925092565b60008060008060808587031215613d6357600080fd5b6000613d7187828801613b7d565b9450506020613d8287828801613b7d565b9350506040613d9387828801613c84565b925050606085013567ffffffffffffffff811115613db057600080fd5b613dbc87828801613c30565b91505092959194509250565b60008060408385031215613ddb57600080fd5b6000613de985828601613b7d565b9250506020613dfa85828601613bdc565b9150509250929050565b60008060408385031215613e1757600080fd5b6000613e2585828601613b7d565b9250506020613e3685828601613c84565b9150509250929050565b600060208284031215613e5257600080fd5b6000613e6084828501613bdc565b91505092915050565b600060208284031215613e7b57600080fd5b6000613e8984828501613bf1565b91505092915050565b600060208284031215613ea457600080fd5b6000613eb284828501613c06565b91505092915050565b600060208284031215613ecd57600080fd5b6000613edb84828501613c1b565b91505092915050565b600060208284031215613ef657600080fd5b600082013567ffffffffffffffff811115613f1057600080fd5b613f1c84828501613c5a565b91505092915050565b600060208284031215613f3757600080fd5b6000613f4584828501613c84565b91505092915050565b600080600060408486031215613f6357600080fd5b6000613f7186828701613c84565b935050602084013567ffffffffffffffff811115613f8e57600080fd5b613f9a86828701613b92565b92509250509250925092565b6000613fb28383614556565b60208301905092915050565b613fc781614c7b565b82525050565b613fd681614c69565b82525050565b613fed613fe882614c69565b614de7565b82525050565b6000613ffe82614add565b6140088185614b0b565b935061401383614ab8565b8060005b8381101561404457815161402b8882613fa6565b975061403683614afe565b925050600181019050614017565b5085935050505092915050565b61405a81614c8d565b82525050565b600061406b82614ae8565b6140758185614b1c565b9350614085818560208601614d08565b61408e81614ef8565b840191505092915050565b60006140a482614af3565b6140ae8185614b38565b93506140be818560208601614d08565b6140c781614ef8565b840191505092915050565b60006140dd82614af3565b6140e78185614b49565b93506140f7818560208601614d08565b80840191505092915050565b6000815461411081614d3b565b61411a8186614b49565b94506001821660008114614135576001811461414657614179565b60ff19831686528186019350614179565b61414f85614ac8565b60005b8381101561417157815481890152600182019150602081019050614152565b838801955050505b50505092915050565b600061418f601783614b38565b915061419a82614f16565b602082019050919050565b60006141b2601083614b38565b91506141bd82614f3f565b602082019050919050565b60006141d5602b83614b38565b91506141e082614f68565b604082019050919050565b60006141f8603283614b38565b915061420382614fb7565b604082019050919050565b600061421b602683614b38565b915061422682615006565b604082019050919050565b600061423e602583614b38565b915061424982615055565b604082019050919050565b6000614261601c83614b38565b915061426c826150a4565b602082019050919050565b6000614284600d83614b38565b915061428f826150cd565b602082019050919050565b60006142a7602483614b38565b91506142b2826150f6565b604082019050919050565b60006142ca601983614b38565b91506142d582615145565b602082019050919050565b60006142ed602c83614b38565b91506142f88261516e565b604082019050919050565b6000614310601e83614b38565b915061431b826151bd565b602082019050919050565b6000614333603883614b38565b915061433e826151e6565b604082019050919050565b6000614356602a83614b38565b915061436182615235565b604082019050919050565b6000614379602983614b38565b915061438482615284565b604082019050919050565b600061439c601883614b38565b91506143a7826152d3565b602082019050919050565b60006143bf602083614b38565b91506143ca826152fc565b602082019050919050565b60006143e2602c83614b38565b91506143ed82615325565b604082019050919050565b6000614405602083614b38565b915061441082615374565b602082019050919050565b6000614428601a83614b38565b91506144338261539d565b602082019050919050565b600061444b602f83614b38565b9150614456826153c6565b604082019050919050565b600061446e601483614b38565b915061447982615415565b602082019050919050565b6000614491602183614b38565b915061449c8261543e565b604082019050919050565b60006144b4600083614b2d565b91506144bf8261548d565b600082019050919050565b60006144d7603183614b38565b91506144e282615490565b604082019050919050565b60006144fa602c83614b38565b9150614505826154df565b604082019050919050565b600061451d601283614b38565b91506145288261552e565b602082019050919050565b6000614540601d83614b38565b915061454b82615557565b602082019050919050565b61455f81614cef565b82525050565b61456e81614cef565b82525050565b60006145808284613fdc565b60148201915081905092915050565b600061459b82866140d2565b91506145a782856140d2565b91506145b38284614103565b9150819050949350505050565b60006145cb826144a7565b9150819050919050565b60006020820190506145ea6000830184613fcd565b92915050565b60006020820190506146056000830184613fbe565b92915050565b60006080820190506146206000830187613fcd565b61462d6020830186613fcd565b61463a6040830185614565565b818103606083015261464c8184614060565b905095945050505050565b600060208201905081810360008301526146718184613ff3565b905092915050565b600060208201905061468e6000830184614051565b92915050565b600060208201905081810360008301526146ae8184614099565b905092915050565b600060208201905081810360008301526146cf81614182565b9050919050565b600060208201905081810360008301526146ef816141a5565b9050919050565b6000602082019050818103600083015261470f816141c8565b9050919050565b6000602082019050818103600083015261472f816141eb565b9050919050565b6000602082019050818103600083015261474f8161420e565b9050919050565b6000602082019050818103600083015261476f81614231565b9050919050565b6000602082019050818103600083015261478f81614254565b9050919050565b600060208201905081810360008301526147af81614277565b9050919050565b600060208201905081810360008301526147cf8161429a565b9050919050565b600060208201905081810360008301526147ef816142bd565b9050919050565b6000602082019050818103600083015261480f816142e0565b9050919050565b6000602082019050818103600083015261482f81614303565b9050919050565b6000602082019050818103600083015261484f81614326565b9050919050565b6000602082019050818103600083015261486f81614349565b9050919050565b6000602082019050818103600083015261488f8161436c565b9050919050565b600060208201905081810360008301526148af8161438f565b9050919050565b600060208201905081810360008301526148cf816143b2565b9050919050565b600060208201905081810360008301526148ef816143d5565b9050919050565b6000602082019050818103600083015261490f816143f8565b9050919050565b6000602082019050818103600083015261492f8161441b565b9050919050565b6000602082019050818103600083015261494f8161443e565b9050919050565b6000602082019050818103600083015261496f81614461565b9050919050565b6000602082019050818103600083015261498f81614484565b9050919050565b600060208201905081810360008301526149af816144ca565b9050919050565b600060208201905081810360008301526149cf816144ed565b9050919050565b600060208201905081810360008301526149ef81614510565b9050919050565b60006020820190508181036000830152614a0f81614533565b9050919050565b6000602082019050614a2b6000830184614565565b92915050565b6000614a3b614a4c565b9050614a478282614d6d565b919050565b6000604051905090565b600067ffffffffffffffff821115614a7157614a70614ec9565b5b614a7a82614ef8565b9050602081019050919050565b600067ffffffffffffffff821115614aa257614aa1614ec9565b5b614aab82614ef8565b9050602081019050919050565b6000819050602082019050919050565b60008190508160005260206000209050919050565b600081519050919050565b600081519050919050565b600081519050919050565b6000602082019050919050565b600082825260208201905092915050565b600082825260208201905092915050565b600081905092915050565b600082825260208201905092915050565b600081905092915050565b6000614b5f82614cef565b9150614b6a83614cef565b9250827fffffffffffffffffffffffffffffffffffffffffffffffffffffffffffffffff03821115614b9f57614b9e614e3c565b5b828201905092915050565b6000614bb582614cef565b9150614bc083614cef565b925082614bd057614bcf614e6b565b5b828204905092915050565b6000614be682614cef565b9150614bf183614cef565b9250817fffffffffffffffffffffffffffffffffffffffffffffffffffffffffffffffff0483118215151615614c2a57614c29614e3c565b5b828202905092915050565b6000614c4082614cef565b9150614c4b83614cef565b925082821015614c5e57614c5d614e3c565b5b828203905092915050565b6000614c7482614ccf565b9050919050565b6000614c8682614ccf565b9050919050565b60008115159050919050565b6000819050919050565b60007fffffffff0000000000000000000000000000000000000000000000000000000082169050919050565b600073ffffffffffffffffffffffffffffffffffffffff82169050919050565b6000819050919050565b82818337600083830152505050565b60005b83811015614d26578082015181840152602081019050614d0b565b83811115614d35576000848401525b50505050565b60006002820490506001821680614d5357607f821691505b60208210811415614d6757614d66614e9a565b5b50919050565b614d7682614ef8565b810181811067ffffffffffffffff82111715614d9557614d94614ec9565b5b80604052505050565b6000614da982614cef565b91507fffffffffffffffffffffffffffffffffffffffffffffffffffffffffffffffff821415614ddc57614ddb614e3c565b5b600182019050919050565b6000614df282614df9565b9050919050565b6000614e0482614f09565b9050919050565b6000614e1682614cef565b9150614e2183614cef565b925082614e3157614e30614e6b565b5b828206905092915050565b7f4e487b7100000000000000000000000000000000000000000000000000000000600052601160045260246000fd5b7f4e487b7100000000000000000000000000000000000000000000000000000000600052601260045260246000fd5b7f4e487b7100000000000000000000000000000000000000000000000000000000600052602260045260246000fd5b7f4e487b7100000000000000000000000000000000000000000000000000000000600052604160045260246000fd5b6000601f19601f8301169050919050565b60008160601b9050919050565b7f63616e6e6f74206d696e74206d6f7265207468616e2033000000000000000000600082015250565b7f616c7265616479206d696e746564203300000000000000000000000000000000600082015250565b7f455243373231456e756d657261626c653a206f776e657220696e646578206f7560008201527f74206f6620626f756e6473000000000000000000000000000000000000000000602082015250565b7f4552433732313a207472616e7366657220746f206e6f6e20455243373231526560008201527f63656976657220696d706c656d656e7465720000000000000000000000000000602082015250565b7f4f776e61626c653a206e6577206f776e657220697320746865207a65726f206160008201527f6464726573730000000000000000000000000000000000000000000000000000602082015250565b7f4552433732313a207472616e736665722066726f6d20696e636f72726563742060008201527f6f776e6572000000000000000000000000000000000000000000000000000000602082015250565b7f4552433732313a20746f6b656e20616c7265616479206d696e74656400000000600082015250565b7f537570706c79206d696e74656400000000000000000000000000000000000000600082015250565b7f4552433732313a207472616e7366657220746f20746865207a65726f2061646460008201527f7265737300000000000000000000000000000000000000000000000000000000602082015250565b7f4552433732313a20617070726f766520746f2063616c6c657200000000000000600082015250565b7f4552433732313a206f70657261746f7220717565727920666f72206e6f6e657860008201527f697374656e7420746f6b656e0000000000000000000000000000000000000000602082015250565b7f4164647265737320646f6573206e6f7420657869737420696e206c6973740000600082015250565b7f4552433732313a20617070726f76652063616c6c6572206973206e6f74206f7760008201527f6e6572206e6f7220617070726f76656420666f7220616c6c0000000000000000602082015250565b7f4552433732313a2062616c616e636520717565727920666f7220746865207a6560008201527f726f206164647265737300000000000000000000000000000000000000000000602082015250565b7f4552433732313a206f776e657220717565727920666f72206e6f6e657869737460008201527f656e7420746f6b656e0000000000000000000000000000000000000000000000602082015250565b7f7472616e73616374696f6e20756e6465727072696365642e0000000000000000600082015250565b7f4552433732313a206d696e7420746f20746865207a65726f2061646472657373600082015250565b7f4552433732313a20617070726f76656420717565727920666f72206e6f6e657860008201527f697374656e7420746f6b656e0000000000000000000000000000000000000000602082015250565b7f4f776e61626c653a2063616c6c6572206973206e6f7420746865206f776e6572600082015250565b7f41646472657373206973206e6f742066726565206d696e746572000000000000600082015250565b7f4552433732314d657461646174613a2055524920717565727920666f72206e6f60008201527f6e6578697374656e7420746f6b656e0000000000000000000000000000000000602082015250565b7f596f752063616e206d696e7420757020746f2033000000000000000000000000600082015250565b7f4552433732313a20617070726f76616c20746f2063757272656e74206f776e6560008201527f7200000000000000000000000000000000000000000000000000000000000000602082015250565b50565b7f4552433732313a207472616e736665722063616c6c6572206973206e6f74206f60008201527f776e6572206e6f7220617070726f766564000000000000000000000000000000602082015250565b7f455243373231456e756d657261626c653a20676c6f62616c20696e646578206f60008201527f7574206f6620626f756e64730000000000000000000000000000000000000000602082015250565b7f436f6e7472616374206973207061757365640000000000000000000000000000600082015250565b7f596f75206861766520746f206d696e74206174206c65617374206f6e65000000600082015250565b61558981614c69565b811461559457600080fd5b50565b6155a081614c8d565b81146155ab57600080fd5b50565b6155b781614c99565b81146155c257600080fd5b50565b6155ce81614ca3565b81146155d957600080fd5b50565b6155e581614cef565b81146155f057600080fd5b5056fea26469706673582212202ddf7319be69a4a25b30a28e425a2a8197283e274c5befc120bc9a0ea7431e4464736f6c6343000804003368747470733a2f2f676174657761792e70696e6174612e636c6f75642f697066732f516d50746f524e654c57637445343638743179784a36367a33595a357232704553397435447a37614e7a534d4c6668747470733a2f2f697066732e696f2f697066732f516d5a34696641534a58433650666a426550716b33345476625a5053634c6b6e766a6777566348564e514e44683268747470733a2f2f697066732e696f2f697066732f516d51557a45366e4e545157755772673665454c32506772676535544c374a5639524c454e42456741596a7a6b73",
    "linkReferences": {},
    "deployedLinkReferences": {}
}